{
  "contractName": "Inbox",
  "abi": [
    {
      "inputs": [],
      "payable": false,
      "stateMutability": "nonpayable",
      "type": "constructor"
    },
    {
      "anonymous": false,
      "inputs": [
        {
          "indexed": false,
          "internalType": "string",
          "name": "_ipfsHash",
          "type": "string"
        },
        {
          "indexed": false,
          "internalType": "string",
          "name": "_address",
          "type": "string"
        }
      ],
      "name": "ipfsSent",
      "type": "event"
    },
    {
      "constant": true,
      "inputs": [
        {
          "internalType": "string",
          "name": "",
          "type": "string"
        }
      ],
      "name": "ipfsInbox",
      "outputs": [
        {
          "internalType": "string",
          "name": "",
          "type": "string"
        }
      ],
      "payable": false,
      "stateMutability": "view",
      "type": "function"
    },
    {
      "constant": true,
      "inputs": [
        {
          "internalType": "uint256",
          "name": "time",
          "type": "uint256"
        }
      ],
      "name": "tokenVerify",
      "outputs": [
        {
          "internalType": "string",
          "name": "",
          "type": "string"
        }
      ],
      "payable": false,
      "stateMutability": "view",
      "type": "function"
    },
    {
      "constant": false,
      "inputs": [],
      "name": "incrementCounter",
      "outputs": [],
      "payable": false,
      "stateMutability": "nonpayable",
      "type": "function"
    },
    {
      "constant": false,
      "inputs": [
        {
          "internalType": "string",
          "name": "_address",
          "type": "string"
        },
        {
          "internalType": "string",
          "name": "_ipfsHash",
          "type": "string"
        }
      ],
      "name": "sendIPFS",
      "outputs": [],
      "payable": false,
      "stateMutability": "nonpayable",
      "type": "function"
    },
    {
      "constant": true,
      "inputs": [
        {
          "internalType": "string",
          "name": "_address",
          "type": "string"
        }
      ],
      "name": "getHash",
      "outputs": [
        {
          "internalType": "string",
          "name": "",
          "type": "string"
        }
      ],
      "payable": false,
      "stateMutability": "view",
      "type": "function"
    }
  ],
  "bytecode": "0x60806040526000805534801561001457600080fd5b50610ab2806100246000396000f3fe608060405234801561001057600080fd5b50600436106100575760003560e01c80631168b5e71461005c5780633bc86509146101035780635b34b966146102555780635b6beeb91461025f578063d9fb97f714610393575b600080fd5b6100886004803603602081101561007257600080fd5b81019080803590602001909291905050506104c7565b6040518080602001828103825283818151815260200191508051906020019080838360005b838110156100c85780820151818401526020810190506100ad565b50505050905090810190601f1680156100f55780820380516001836020036101000a031916815260200191505b509250505060405180910390f35b6102536004803603604081101561011957600080fd5b810190808035906020019064010000000081111561013657600080fd5b82018360208201111561014857600080fd5b8035906020019184600183028401116401000000008311171561016a57600080fd5b91908080601f016020809104026020016040519081016040528093929190818152602001838380828437600081840152601f19601f820116905080830192505050505050509192919290803590602001906401000000008111156101cd57600080fd5b8201836020820111156101df57600080fd5b8035906020019184600183028401116401000000008311171561020157600080fd5b91908080601f016020809104026020016040519081016040528093929190818152602001838380828437600081840152601f19601f82011690508083019250505050505050919291929050505061054e565b005b61025d6107f0565b005b6103186004803603602081101561027557600080fd5b810190808035906020019064010000000081111561029257600080fd5b8201836020820111156102a457600080fd5b803590602001918460018302840111640100000000831117156102c657600080fd5b91908080601f016020809104026020016040519081016040528093929190818152602001838380828437600081840152601f19601f820116905080830192505050505050509192919290505050610802565b6040518080602001828103825283818151815260200191508051906020019080838360005b8381101561035857808201518184015260208101905061033d565b50505050905090810190601f1680156103855780820380516001836020036101000a031916815260200191505b509250505060405180910390f35b61044c600480360360208110156103a957600080fd5b81019080803590602001906401000000008111156103c657600080fd5b8201836020820111156103d857600080fd5b803590602001918460018302840111640100000000831117156103fa57600080fd5b91908080601f016020809104026020016040519081016040528093929190818152602001838380828437600081840152601f19601f820116905080830192505050505050509192919290505050610912565b6040518080602001828103825283818151815260200191508051906020019080838360005b8381101561048c578082015181840152602081019050610471565b50505050905090810190601f1680156104b95780820380516001836020036101000a031916815260200191505b509250505060405180910390f35b6060603c82420311610510576040518060400160405280600281526020017f6f6b0000000000000000000000000000000000000000000000000000000000008152509050610549565b6040518060400160405280600481526020017f6661696c0000000000000000000000000000000000000000000000000000000081525090505b919050565b6001826040518082805190602001908083835b602083106105845780518252602082019150602081019050602083039250610561565b6001836020036101000a03801982511681845116808217855250505050505090500191505090815260200160405180910390208054600181600116156101000203166002900480601f01602080910402602001604051908101604052809291908181526020018280546001816001161561010002031660029004801561064b5780601f106106205761010080835404028352916020019161064b565b820191906000526020600020905b81548152906001019060200180831161062e57829003601f168201915b50505050506060819050600081511461066357600080fd5b826001856040518082805190602001908083835b6020831061069a5780518252602082019150602081019050602083039250610677565b6001836020036101000a038019825116818451168082178552505050505050905001915050908152602001604051809103902090805190602001906106e09291906109d8565b507fe20751acac1c1604f322f90c67a302e99b44a472645e625269c08832cded23408385604051808060200180602001838103835285818151815260200191508051906020019080838360005b8381101561074857808201518184015260208101905061072d565b50505050905090810190601f1680156107755780820380516001836020036101000a031916815260200191505b50838103825284818151815260200191508051906020019080838360005b838110156107ae578082015181840152602081019050610793565b50505050905090810190601f1680156107db5780820380516001836020036101000a031916815260200191505b5094505050505060405180910390a150505050565b60016000808282540192505081905550565b6060806001836040518082805190602001908083835b6020831061083b5780518252602082019150602081019050602083039250610818565b6001836020036101000a03801982511681845116808217855250505050505090500191505090815260200160405180910390208054600181600116156101000203166002900480601f0160208091040260200160405190810160405280929190818152602001828054600181600116156101000203166002900480156109025780601f106108d757610100808354040283529160200191610902565b820191906000526020600020905b8154815290600101906020018083116108e557829003601f168201915b5050505050905080915050919050565b6001818051602081018201805184825260208301602085012081835280955050505050506000915090508054600181600116156101000203166002900480601f0160208091040260200160405190810160405280929190818152602001828054600181600116156101000203166002900480156109d05780601f106109a5576101008083540402835291602001916109d0565b820191906000526020600020905b8154815290600101906020018083116109b357829003601f168201915b505050505081565b828054600181600116156101000203166002900490600052602060002090601f016020900481019282601f10610a1957805160ff1916838001178555610a47565b82800160010185558215610a47579182015b82811115610a46578251825591602001919060010190610a2b565b5b509050610a549190610a58565b5090565b610a7a91905b80821115610a76576000816000905550600101610a5e565b5090565b9056fea265627a7a723158201ea0b0f3a0d91b4de2ecb1e7c4f28226f1b3c422b90c640dd5cd597da0a433ba64736f6c63430005100032",
  "source": "pragma solidity ^0.5.2;\r\ncontract Inbox{\r\n       constructor() public{}\r\nfunction tokenVerify(uint256 time) public view returns(string memory){\r\n      if(now - time <= 60){\r\n          return \"ok\";\r\n      }\r\n      else{\r\n          return \"fail\";\r\n      }\r\n  }\r\n  int private count = 0;\r\nfunction incrementCounter() public {\r\n    count += 1;\r\n}\r\n    //Modifiers\r\n    modifier notFull (string memory _string) {\r\n    bytes memory stringTest = bytes(_string); \r\n    require(stringTest.length==0); \r\n    _;\r\n    }\r\nmapping (string=>string) public ipfsInbox;\r\nevent ipfsSent(string _ipfsHash, string _address); \r\nfunction sendIPFS(string memory _address, string memory _ipfsHash) notFull(ipfsInbox[_address]) public{\r\n        ipfsInbox[_address] = _ipfsHash;\r\n        emit ipfsSent(_ipfsHash, _address);\r\n    }\r\n    //retrieves hash\r\nfunction getHash(string memory _address) public view returns(string memory) {\r\n        string memory ipfs_hash=ipfsInbox[_address];\r\n         //emit inboxResponse(ipfs_hash);\r\n        return ipfs_hash;\r\n    }\r\n\r\n}",
  "sourcePath": "D:\\notes\\project\\gdpr re\\resourse_server\\contracts\\Inbox.sol",
  "compiler": {
    "name": "solc",
    "version": "0.5.16+commit.9c3226ce.Emscripten.clang"
  },
  "schemaVersion": "3.4.10",
  "updatedAt": "2022-12-28T17:39:44.796Z",
  "networkType": "ethereum",
  "devdoc": {
    "methods": {}
  },
  "userdoc": {
    "methods": {}
  }
}