{
  "contractName": "Inbox",
  "abi": [
    {
      "inputs": [],
      "payable": false,
      "stateMutability": "nonpayable",
      "type": "constructor"
    },
    {
      "anonymous": false,
      "inputs": [
        {
          "indexed": false,
          "internalType": "string",
          "name": "_do",
          "type": "string"
        },
        {
          "indexed": false,
          "internalType": "bytes",
          "name": "_doPk",
          "type": "bytes"
        }
      ],
      "name": "doSent",
      "type": "event"
    },
    {
      "anonymous": false,
      "inputs": [
        {
          "indexed": false,
          "internalType": "string",
          "name": "_du",
          "type": "string"
        },
        {
          "indexed": false,
          "internalType": "bytes",
          "name": "_duPk",
          "type": "bytes"
        }
      ],
      "name": "duSent",
      "type": "event"
    },
    {
      "anonymous": false,
      "inputs": [
        {
          "indexed": false,
          "internalType": "string",
          "name": "response",
          "type": "string"
        }
      ],
      "name": "inboxResponse",
      "type": "event"
    },
    {
      "anonymous": false,
      "inputs": [
        {
          "indexed": false,
          "internalType": "string",
          "name": "_ipfsHash",
          "type": "string"
        },
        {
          "indexed": false,
          "internalType": "string",
          "name": "_address",
          "type": "string"
        }
      ],
      "name": "ipfsSent",
      "type": "event"
    },
    {
      "anonymous": false,
      "inputs": [
        {
          "indexed": false,
          "internalType": "bytes",
          "name": "",
          "type": "bytes"
        },
        {
          "indexed": false,
          "internalType": "bytes",
          "name": "",
          "type": "bytes"
        },
        {
          "indexed": false,
          "internalType": "bytes",
          "name": "",
          "type": "bytes"
        }
      ],
      "name": "publickey",
      "type": "event"
    },
    {
      "anonymous": false,
      "inputs": [
        {
          "indexed": false,
          "internalType": "address",
          "name": "",
          "type": "address"
        },
        {
          "indexed": false,
          "internalType": "address",
          "name": "",
          "type": "address"
        },
        {
          "indexed": false,
          "internalType": "address",
          "name": "",
          "type": "address"
        }
      ],
      "name": "sign2",
      "type": "event"
    },
    {
      "anonymous": false,
      "inputs": [
        {
          "indexed": false,
          "internalType": "address",
          "name": "",
          "type": "address"
        },
        {
          "indexed": false,
          "internalType": "address",
          "name": "",
          "type": "address"
        },
        {
          "indexed": false,
          "internalType": "address",
          "name": "",
          "type": "address"
        }
      ],
      "name": "signer",
      "type": "event"
    },
    {
      "anonymous": false,
      "inputs": [
        {
          "indexed": false,
          "internalType": "string",
          "name": "_sp",
          "type": "string"
        },
        {
          "indexed": false,
          "internalType": "bytes",
          "name": "_spPk",
          "type": "bytes"
        }
      ],
      "name": "spSent",
      "type": "event"
    },
    {
      "constant": true,
      "inputs": [
        {
          "internalType": "string",
          "name": "",
          "type": "string"
        }
      ],
      "name": "doData",
      "outputs": [
        {
          "internalType": "bytes",
          "name": "",
          "type": "bytes"
        }
      ],
      "payable": false,
      "stateMutability": "view",
      "type": "function"
    },
    {
      "constant": true,
      "inputs": [
        {
          "internalType": "string",
          "name": "",
          "type": "string"
        }
      ],
      "name": "duData",
      "outputs": [
        {
          "internalType": "bytes",
          "name": "",
          "type": "bytes"
        }
      ],
      "payable": false,
      "stateMutability": "view",
      "type": "function"
    },
    {
      "constant": true,
      "inputs": [
        {
          "internalType": "string",
          "name": "",
          "type": "string"
        }
      ],
      "name": "ipfsInbox",
      "outputs": [
        {
          "internalType": "string",
          "name": "",
          "type": "string"
        }
      ],
      "payable": false,
      "stateMutability": "view",
      "type": "function"
    },
    {
      "constant": true,
      "inputs": [
        {
          "internalType": "string",
          "name": "",
          "type": "string"
        }
      ],
      "name": "spData",
      "outputs": [
        {
          "internalType": "bytes",
          "name": "",
          "type": "bytes"
        }
      ],
      "payable": false,
      "stateMutability": "view",
      "type": "function"
    },
    {
      "constant": true,
      "inputs": [
        {
          "internalType": "bytes32",
          "name": "hash",
          "type": "bytes32"
        },
        {
          "internalType": "bytes",
          "name": "signature",
          "type": "bytes"
        }
      ],
      "name": "recover",
      "outputs": [
        {
          "internalType": "address",
          "name": "",
          "type": "address"
        }
      ],
      "payable": false,
      "stateMutability": "pure",
      "type": "function"
    },
    {
      "constant": true,
      "inputs": [
        {
          "internalType": "string",
          "name": "a",
          "type": "string"
        },
        {
          "internalType": "string",
          "name": "b",
          "type": "string"
        }
      ],
      "name": "concatenate",
      "outputs": [
        {
          "internalType": "string",
          "name": "",
          "type": "string"
        }
      ],
      "payable": false,
      "stateMutability": "pure",
      "type": "function"
    },
    {
      "constant": true,
      "inputs": [
        {
          "internalType": "bytes",
          "name": "_publicKey",
          "type": "bytes"
        }
      ],
      "name": "getAddressFromPublicKey",
      "outputs": [
        {
          "internalType": "address",
          "name": "",
          "type": "address"
        }
      ],
      "payable": false,
      "stateMutability": "pure",
      "type": "function"
    },
    {
      "constant": false,
      "inputs": [
        {
          "internalType": "string",
          "name": "_address",
          "type": "string"
        },
        {
          "internalType": "string",
          "name": "_ipfsHash",
          "type": "string"
        }
      ],
      "name": "sendIPFS",
      "outputs": [],
      "payable": false,
      "stateMutability": "nonpayable",
      "type": "function"
    },
    {
      "constant": true,
      "inputs": [
        {
          "internalType": "string",
          "name": "_address",
          "type": "string"
        }
      ],
      "name": "getHash",
      "outputs": [
        {
          "internalType": "string",
          "name": "",
          "type": "string"
        }
      ],
      "payable": false,
      "stateMutability": "view",
      "type": "function"
    },
    {
      "constant": false,
      "inputs": [
        {
          "internalType": "string",
          "name": "_du",
          "type": "string"
        },
        {
          "internalType": "bytes",
          "name": "_duPk",
          "type": "bytes"
        }
      ],
      "name": "store_du",
      "outputs": [],
      "payable": false,
      "stateMutability": "nonpayable",
      "type": "function"
    },
    {
      "constant": true,
      "inputs": [
        {
          "internalType": "string",
          "name": "_du",
          "type": "string"
        }
      ],
      "name": "get_du",
      "outputs": [
        {
          "internalType": "bytes",
          "name": "",
          "type": "bytes"
        }
      ],
      "payable": false,
      "stateMutability": "view",
      "type": "function"
    },
    {
      "constant": false,
      "inputs": [
        {
          "internalType": "string",
          "name": "_do",
          "type": "string"
        },
        {
          "internalType": "bytes",
          "name": "_doPk",
          "type": "bytes"
        }
      ],
      "name": "store_do",
      "outputs": [],
      "payable": false,
      "stateMutability": "nonpayable",
      "type": "function"
    },
    {
      "constant": true,
      "inputs": [
        {
          "internalType": "string",
          "name": "_do",
          "type": "string"
        }
      ],
      "name": "get_do",
      "outputs": [
        {
          "internalType": "bytes",
          "name": "",
          "type": "bytes"
        }
      ],
      "payable": false,
      "stateMutability": "view",
      "type": "function"
    },
    {
      "constant": false,
      "inputs": [
        {
          "internalType": "string",
          "name": "_sp",
          "type": "string"
        },
        {
          "internalType": "bytes",
          "name": "_spPk",
          "type": "bytes"
        }
      ],
      "name": "store_sp",
      "outputs": [],
      "payable": false,
      "stateMutability": "nonpayable",
      "type": "function"
    },
    {
      "constant": true,
      "inputs": [
        {
          "internalType": "string",
          "name": "_sp",
          "type": "string"
        }
      ],
      "name": "get_sp",
      "outputs": [
        {
          "internalType": "bytes",
          "name": "",
          "type": "bytes"
        }
      ],
      "payable": false,
      "stateMutability": "view",
      "type": "function"
    },
    {
      "constant": true,
      "inputs": [
        {
          "internalType": "bytes32",
          "name": "_hasheddu",
          "type": "bytes32"
        },
        {
          "internalType": "bytes32",
          "name": "_hasheddo",
          "type": "bytes32"
        },
        {
          "internalType": "bytes32",
          "name": "_hashedsp",
          "type": "bytes32"
        },
        {
          "internalType": "bytes",
          "name": "signatureDu",
          "type": "bytes"
        },
        {
          "internalType": "bytes",
          "name": "signatureDo",
          "type": "bytes"
        },
        {
          "internalType": "bytes",
          "name": "signatureSp",
          "type": "bytes"
        }
      ],
      "name": "request_data",
      "outputs": [
        {
          "internalType": "uint256",
          "name": "",
          "type": "uint256"
        }
      ],
      "payable": false,
      "stateMutability": "view",
      "type": "function"
    },
    {
      "constant": true,
      "inputs": [
        {
          "internalType": "uint256",
          "name": "time",
          "type": "uint256"
        }
      ],
      "name": "tokenVerify",
      "outputs": [
        {
          "internalType": "string",
          "name": "",
          "type": "string"
        }
      ],
      "payable": false,
      "stateMutability": "view",
      "type": "function"
    },
    {
      "constant": false,
      "inputs": [],
      "name": "incrementCounter",
      "outputs": [],
      "payable": false,
      "stateMutability": "nonpayable",
      "type": "function"
    },
    {
      "constant": true,
      "inputs": [],
      "name": "gettime",
      "outputs": [
        {
          "internalType": "uint256",
          "name": "",
          "type": "uint256"
        }
      ],
      "payable": false,
      "stateMutability": "view",
      "type": "function"
    }
  ],
  "bytecode": "0x6080604052600060045534801561001557600080fd5b50612f96806100256000396000f3fe608060405234801561001057600080fd5b50600436106101215760003560e01c80635a3db2dc116100ad578063cd9a10bb11610071578063cd9a10bb14610fd8578063cecc6e32146111f3578063d7b5e6fe14611327578063d9fb97f71461145b578063f5e3c50f1461158f57610121565b80635a3db2dc14610ae05780635b34b96614610c145780635b6beeb914610c1e578063a5b79c3914610d52578063cd58ac8914610ea457610121565b80631c88fb51116100f45780631c88fb5114610424578063266001d314610576578063276c1ac0146107415780633bc865091461083c578063485547281461098e57610121565b806304e9c52a146101265780631168b5e71461025a57806316d061a51461030157806319045a251461031f575b600080fd5b6101df6004803603602081101561013c57600080fd5b810190808035906020019064010000000081111561015957600080fd5b82018360208201111561016b57600080fd5b8035906020019184600183028401116401000000008311171561018d57600080fd5b91908080601f016020809104026020016040519081016040528093929190818152602001838380828437600081840152601f19601f8201169050808301925050505050505091929192905050506116c3565b6040518080602001828103825283818151815260200191508051906020019080838360005b8381101561021f578082015181840152602081019050610204565b50505050905090810190601f16801561024c5780820380516001836020036101000a031916815260200191505b509250505060405180910390f35b6102866004803603602081101561027057600080fd5b8101908080359060200190929190505050611789565b6040518080602001828103825283818151815260200191508051906020019080838360005b838110156102c65780820151818401526020810190506102ab565b50505050905090810190601f1680156102f35780820380516001836020036101000a031916815260200191505b509250505060405180910390f35b610309611810565b6040518082815260200191505060405180910390f35b6103e26004803603604081101561033557600080fd5b81019080803590602001909291908035906020019064010000000081111561035c57600080fd5b82018360208201111561036e57600080fd5b8035906020019184600183028401116401000000008311171561039057600080fd5b91908080601f016020809104026020016040519081016040528093929190818152602001838380828437600081840152601f19601f820116905080830192505050505050509192919290505050611818565b604051808273ffffffffffffffffffffffffffffffffffffffff1673ffffffffffffffffffffffffffffffffffffffff16815260200191505060405180910390f35b6105746004803603604081101561043a57600080fd5b810190808035906020019064010000000081111561045757600080fd5b82018360208201111561046957600080fd5b8035906020019184600183028401116401000000008311171561048b57600080fd5b91908080601f016020809104026020016040519081016040528093929190818152602001838380828437600081840152601f19601f820116905080830192505050505050509192919290803590602001906401000000008111156104ee57600080fd5b82018360208201111561050057600080fd5b8035906020019184600183028401116401000000008311171561052257600080fd5b91908080601f016020809104026020016040519081016040528093929190818152602001838380828437600081840152601f19601f82011690508083019250505050505050919291929050505061191c565b005b6106c66004803603604081101561058c57600080fd5b81019080803590602001906401000000008111156105a957600080fd5b8201836020820111156105bb57600080fd5b803590602001918460018302840111640100000000831117156105dd57600080fd5b91908080601f016020809104026020016040519081016040528093929190818152602001838380828437600081840152601f19601f8201169050808301925050505050505091929192908035906020019064010000000081111561064057600080fd5b82018360208201111561065257600080fd5b8035906020019184600183028401116401000000008311171561067457600080fd5b91908080601f016020809104026020016040519081016040528093929190818152602001838380828437600081840152601f19601f820116905080830192505050505050509192919290505050611bfc565b6040518080602001828103825283818151815260200191508051906020019080838360005b838110156107065780820151818401526020810190506106eb565b50505050905090810190601f1680156107335780820380516001836020036101000a031916815260200191505b509250505060405180910390f35b6107fa6004803603602081101561075757600080fd5b810190808035906020019064010000000081111561077457600080fd5b82018360208201111561078657600080fd5b803590602001918460018302840111640100000000831117156107a857600080fd5b91908080601f016020809104026020016040519081016040528093929190818152602001838380828437600081840152601f19601f820116905080830192505050505050509192919290505050611cec565b604051808273ffffffffffffffffffffffffffffffffffffffff1673ffffffffffffffffffffffffffffffffffffffff16815260200191505060405180910390f35b61098c6004803603604081101561085257600080fd5b810190808035906020019064010000000081111561086f57600080fd5b82018360208201111561088157600080fd5b803590602001918460018302840111640100000000831117156108a357600080fd5b91908080601f016020809104026020016040519081016040528093929190818152602001838380828437600081840152601f19601f8201169050808301925050505050505091929192908035906020019064010000000081111561090657600080fd5b82018360208201111561091857600080fd5b8035906020019184600183028401116401000000008311171561093a57600080fd5b91908080601f016020809104026020016040519081016040528093929190818152602001838380828437600081840152601f19601f820116905080830192505050505050509192919290505050611d67565b005b610ade600480360360408110156109a457600080fd5b81019080803590602001906401000000008111156109c157600080fd5b8201836020820111156109d357600080fd5b803590602001918460018302840111640100000000831117156109f557600080fd5b91908080601f016020809104026020016040519081016040528093929190818152602001838380828437600081840152601f19601f82011690508083019250505050505050919291929080359060200190640100000000811115610a5857600080fd5b820183602082011115610a6a57600080fd5b80359060200191846001830284011164010000000083111715610a8c57600080fd5b91908080601f016020809104026020016040519081016040528093929190818152602001838380828437600081840152601f19601f820116905080830192505050505050509192919290505050612009565b005b610b9960048036036020811015610af657600080fd5b8101908080359060200190640100000000811115610b1357600080fd5b820183602082011115610b2557600080fd5b80359060200191846001830284011164010000000083111715610b4757600080fd5b91908080601f016020809104026020016040519081016040528093929190818152602001838380828437600081840152601f19601f8201169050808301925050505050505091929192905050506122e9565b6040518080602001828103825283818151815260200191508051906020019080838360005b83811015610bd9578082015181840152602081019050610bbe565b50505050905090810190601f168015610c065780820380516001836020036101000a031916815260200191505b509250505060405180910390f35b610c1c6123f9565b005b610cd760048036036020811015610c3457600080fd5b8101908080359060200190640100000000811115610c5157600080fd5b820183602082011115610c6357600080fd5b80359060200191846001830284011164010000000083111715610c8557600080fd5b91908080601f016020809104026020016040519081016040528093929190818152602001838380828437600081840152601f19601f82011690508083019250505050505050919291929050505061240c565b6040518080602001828103825283818151815260200191508051906020019080838360005b83811015610d17578082015181840152602081019050610cfc565b50505050905090810190601f168015610d445780820380516001836020036101000a031916815260200191505b509250505060405180910390f35b610ea260048036036040811015610d6857600080fd5b8101908080359060200190640100000000811115610d8557600080fd5b820183602082011115610d9757600080fd5b80359060200191846001830284011164010000000083111715610db957600080fd5b91908080601f016020809104026020016040519081016040528093929190818152602001838380828437600081840152601f19601f82011690508083019250505050505050919291929080359060200190640100000000811115610e1c57600080fd5b820183602082011115610e2e57600080fd5b80359060200191846001830284011164010000000083111715610e5057600080fd5b91908080601f016020809104026020016040519081016040528093929190818152602001838380828437600081840152601f19601f82011690508083019250505050505050919291929050505061251c565b005b610f5d60048036036020811015610eba57600080fd5b8101908080359060200190640100000000811115610ed757600080fd5b820183602082011115610ee957600080fd5b80359060200191846001830284011164010000000083111715610f0b57600080fd5b91908080601f016020809104026020016040519081016040528093929190818152602001838380828437600081840152601f19601f8201169050808301925050505050505091929192905050506127fc565b6040518080602001828103825283818151815260200191508051906020019080838360005b83811015610f9d578082015181840152602081019050610f82565b50505050905090810190601f168015610fca5780820380516001836020036101000a031916815260200191505b509250505060405180910390f35b6111dd600480360360c0811015610fee57600080fd5b810190808035906020019092919080359060200190929190803590602001909291908035906020019064010000000081111561102957600080fd5b82018360208201111561103b57600080fd5b8035906020019184600183028401116401000000008311171561105d57600080fd5b91908080601f016020809104026020016040519081016040528093929190818152602001838380828437600081840152601f19601f820116905080830192505050505050509192919290803590602001906401000000008111156110c057600080fd5b8201836020820111156110d257600080fd5b803590602001918460018302840111640100000000831117156110f457600080fd5b91908080601f016020809104026020016040519081016040528093929190818152602001838380828437600081840152601f19601f8201169050808301925050505050505091929192908035906020019064010000000081111561115757600080fd5b82018360208201111561116957600080fd5b8035906020019184600183028401116401000000008311171561118b57600080fd5b91908080601f016020809104026020016040519081016040528093929190818152602001838380828437600081840152601f19601f82011690508083019250505050505050919291929050505061290c565b6040518082815260200191505060405180910390f35b6112ac6004803603602081101561120957600080fd5b810190808035906020019064010000000081111561122657600080fd5b82018360208201111561123857600080fd5b8035906020019184600183028401116401000000008311171561125a57600080fd5b91908080601f016020809104026020016040519081016040528093929190818152602001838380828437600081840152601f19601f820116905080830192505050505050509192919290505050612ada565b6040518080602001828103825283818151815260200191508051906020019080838360005b838110156112ec5780820151818401526020810190506112d1565b50505050905090810190601f1680156113195780820380516001836020036101000a031916815260200191505b509250505060405180910390f35b6113e06004803603602081101561133d57600080fd5b810190808035906020019064010000000081111561135a57600080fd5b82018360208201111561136c57600080fd5b8035906020019184600183028401116401000000008311171561138e57600080fd5b91908080601f016020809104026020016040519081016040528093929190818152602001838380828437600081840152601f19601f820116905080830192505050505050509192919290505050612ba0565b6040518080602001828103825283818151815260200191508051906020019080838360005b83811015611420578082015181840152602081019050611405565b50505050905090810190601f16801561144d5780820380516001836020036101000a031916815260200191505b509250505060405180910390f35b6115146004803603602081101561147157600080fd5b810190808035906020019064010000000081111561148e57600080fd5b8201836020820111156114a057600080fd5b803590602001918460018302840111640100000000831117156114c257600080fd5b91908080601f016020809104026020016040519081016040528093929190818152602001838380828437600081840152601f19601f820116905080830192505050505050509192919290505050612cb0565b6040518080602001828103825283818151815260200191508051906020019080838360005b83811015611554578082015181840152602081019050611539565b50505050905090810190601f1680156115815780820380516001836020036101000a031916815260200191505b509250505060405180910390f35b611648600480360360208110156115a557600080fd5b81019080803590602001906401000000008111156115c257600080fd5b8201836020820111156115d457600080fd5b803590602001918460018302840111640100000000831117156115f657600080fd5b91908080601f016020809104026020016040519081016040528093929190818152602001838380828437600081840152601f19601f820116905080830192505050505050509192919290505050612d76565b6040518080602001828103825283818151815260200191508051906020019080838360005b8381101561168857808201518184015260208101905061166d565b50505050905090810190601f1680156116b55780820380516001836020036101000a031916815260200191505b509250505060405180910390f35b6002818051602081018201805184825260208301602085012081835280955050505050506000915090508054600181600116156101000203166002900480601f0160208091040260200160405190810160405280929190818152602001828054600181600116156101000203166002900480156117815780601f1061175657610100808354040283529160200191611781565b820191906000526020600020905b81548152906001019060200180831161176457829003601f168201915b505050505081565b6060603c824203116117d2576040518060400160405280600281526020017f6f6b000000000000000000000000000000000000000000000000000000000000815250905061180b565b6040518060400160405280600481526020017f6661696c0000000000000000000000000000000000000000000000000000000081525090505b919050565b600042905090565b6000604182511461182c5760009050611916565b60008060006020850151925060408501519150606085015160001a90507f7fffffffffffffffffffffffffffffff5d576e7357a4501ddfe92f46681b20a08260001c11156118805760009350505050611916565b601b8160ff16141580156118985750601c8160ff1614155b156118a95760009350505050611916565b60018682858560405160008152602001604052604051808581526020018460ff1660ff1681526020018381526020018281526020019450505050506020604051602081039080840390855afa158015611906573d6000803e3d6000fd5b5050506020604051035193505050505b92915050565b6002826040518082805190602001908083835b60208310611952578051825260208201915060208101905060208303925061192f565b6001836020036101000a03801982511681845116808217855250505050505090500191505090815260200160405180910390208054600181600116156101000203166002900480601f016020809104026020016040519081016040528092919081815260200182805460018160011615610100020316600290048015611a195780601f106119ee57610100808354040283529160200191611a19565b820191906000526020600020905b8154815290600101906020018083116119fc57829003601f168201915b505050505060608190506000815114611a3157600080fd5b826002611a73866040518060400160405280600981526020017f7075626c69634b65790000000000000000000000000000000000000000000000815250611bfc565b6040518082805190602001908083835b60208310611aa65780518252602082019150602081019050602083039250611a83565b6001836020036101000a03801982511681845116808217855250505050505090500191505090815260200160405180910390209080519060200190611aec929190612e3c565b507f342009307a28d3d5047009a41c326ea61b1353352d720447357194c82b2d10338484604051808060200180602001838103835285818151815260200191508051906020019080838360005b83811015611b54578082015181840152602081019050611b39565b50505050905090810190601f168015611b815780820380516001836020036101000a031916815260200191505b50838103825284818151815260200191508051906020019080838360005b83811015611bba578082015181840152602081019050611b9f565b50505050905090810190601f168015611be75780820380516001836020036101000a031916815260200191505b5094505050505060405180910390a150505050565b606082826040516020018083805190602001908083835b60208310611c365780518252602082019150602081019050602083039250611c13565b6001836020036101000a038019825116818451168082178552505050505050905001807f2e0000000000000000000000000000000000000000000000000000000000000081525060010182805190602001908083835b60208310611caf5780518252602082019150602081019050602083039250611c8c565b6001836020036101000a03801982511681845116808217855250505050505090500192505050604051602081830303815290604052905092915050565b6000808280519060200120905060008090506000600160200360ff1690505b600c600182011115611d5c576000838260208110611d2557fe5b1a60f81b60f81c60ff16905060006002600184602060ff1603030260100a8202905080840193505050808060019003915050611d0b565b508092505050919050565b6000826040518082805190602001908083835b60208310611d9d5780518252602082019150602081019050602083039250611d7a565b6001836020036101000a03801982511681845116808217855250505050505090500191505090815260200160405180910390208054600181600116156101000203166002900480601f016020809104026020016040519081016040528092919081815260200182805460018160011615610100020316600290048015611e645780601f10611e3957610100808354040283529160200191611e64565b820191906000526020600020905b815481529060010190602001808311611e4757829003601f168201915b505050505060608190506000815114611e7c57600080fd5b826000856040518082805190602001908083835b60208310611eb35780518252602082019150602081019050602083039250611e90565b6001836020036101000a03801982511681845116808217855250505050505090500191505090815260200160405180910390209080519060200190611ef9929190612ebc565b507fe20751acac1c1604f322f90c67a302e99b44a472645e625269c08832cded23408385604051808060200180602001838103835285818151815260200191508051906020019080838360005b83811015611f61578082015181840152602081019050611f46565b50505050905090810190601f168015611f8e5780820380516001836020036101000a031916815260200191505b50838103825284818151815260200191508051906020019080838360005b83811015611fc7578082015181840152602081019050611fac565b50505050905090810190601f168015611ff45780820380516001836020036101000a031916815260200191505b5094505050505060405180910390a150505050565b6003826040518082805190602001908083835b6020831061203f578051825260208201915060208101905060208303925061201c565b6001836020036101000a03801982511681845116808217855250505050505090500191505090815260200160405180910390208054600181600116156101000203166002900480601f0160208091040260200160405190810160405280929190818152602001828054600181600116156101000203166002900480156121065780601f106120db57610100808354040283529160200191612106565b820191906000526020600020905b8154815290600101906020018083116120e957829003601f168201915b50505050506060819050600081511461211e57600080fd5b826003612160866040518060400160405280600981526020017f7075626c69634b65790000000000000000000000000000000000000000000000815250611bfc565b6040518082805190602001908083835b602083106121935780518252602082019150602081019050602083039250612170565b6001836020036101000a038019825116818451168082178552505050505050905001915050908152602001604051809103902090805190602001906121d9929190612e3c565b507f687bd681425e34e3229b32bd4df004c078f59253672feb2f1298ce669c16b6a68484604051808060200180602001838103835285818151815260200191508051906020019080838360005b83811015612241578082015181840152602081019050612226565b50505050905090810190601f16801561226e5780820380516001836020036101000a031916815260200191505b50838103825284818151815260200191508051906020019080838360005b838110156122a757808201518184015260208101905061228c565b50505050905090810190601f1680156122d45780820380516001836020036101000a031916815260200191505b5094505050505060405180910390a150505050565b6060806003836040518082805190602001908083835b6020831061232257805182526020820191506020810190506020830392506122ff565b6001836020036101000a03801982511681845116808217855250505050505090500191505090815260200160405180910390208054600181600116156101000203166002900480601f0160208091040260200160405190810160405280929190818152602001828054600181600116156101000203166002900480156123e95780601f106123be576101008083540402835291602001916123e9565b820191906000526020600020905b8154815290600101906020018083116123cc57829003601f168201915b5050505050905080915050919050565b6001600460008282540192505081905550565b6060806000836040518082805190602001908083835b602083106124455780518252602082019150602081019050602083039250612422565b6001836020036101000a03801982511681845116808217855250505050505090500191505090815260200160405180910390208054600181600116156101000203166002900480601f01602080910402602001604051908101604052809291908181526020018280546001816001161561010002031660029004801561250c5780601f106124e15761010080835404028352916020019161250c565b820191906000526020600020905b8154815290600101906020018083116124ef57829003601f168201915b5050505050905080915050919050565b6001826040518082805190602001908083835b60208310612552578051825260208201915060208101905060208303925061252f565b6001836020036101000a03801982511681845116808217855250505050505090500191505090815260200160405180910390208054600181600116156101000203166002900480601f0160208091040260200160405190810160405280929190818152602001828054600181600116156101000203166002900480156126195780601f106125ee57610100808354040283529160200191612619565b820191906000526020600020905b8154815290600101906020018083116125fc57829003601f168201915b50505050506060819050600081511461263157600080fd5b826001612673866040518060400160405280600981526020017f7075626c69634b65790000000000000000000000000000000000000000000000815250611bfc565b6040518082805190602001908083835b602083106126a65780518252602082019150602081019050602083039250612683565b6001836020036101000a038019825116818451168082178552505050505050905001915050908152602001604051809103902090805190602001906126ec929190612e3c565b507fe566db60042b084497927f594fbb82be57791212ccef9d5297a3f6ea75cdf3c48484604051808060200180602001838103835285818151815260200191508051906020019080838360005b83811015612754578082015181840152602081019050612739565b50505050905090810190601f1680156127815780820380516001836020036101000a031916815260200191505b50838103825284818151815260200191508051906020019080838360005b838110156127ba57808201518184015260208101905061279f565b50505050905090810190601f1680156127e75780820380516001836020036101000a031916815260200191505b5094505050505060405180910390a150505050565b6060806001836040518082805190602001908083835b602083106128355780518252602082019150602081019050602083039250612812565b6001836020036101000a03801982511681845116808217855250505050505090500191505090815260200160405180910390208054600181600116156101000203166002900480601f0160208091040260200160405190810160405280929190818152602001828054600181600116156101000203166002900480156128fc5780601f106128d1576101008083540402835291602001916128fc565b820191906000526020600020905b8154815290600101906020018083116128df57829003601f168201915b5050505050905080915050919050565b6000806129198886611818565b905060006129278886611818565b905060006129358886611818565b9050600061297f61297a6040518060400160405280600e81526020017f757365722e7075626c69634b65790000000000000000000000000000000000008152506127fc565b611cec565b905060006129c96129c46040518060400160405280600e81526020017f757365722e7075626c69634b6579000000000000000000000000000000000000815250612ba0565b611cec565b90506000612a13612a0e6040518060400160405280600e81526020017f757365722e7075626c69634b65790000000000000000000000000000000000008152506122e9565b611cec565b90508573ffffffffffffffffffffffffffffffffffffffff168373ffffffffffffffffffffffffffffffffffffffff16148015612a7b57508473ffffffffffffffffffffffffffffffffffffffff168273ffffffffffffffffffffffffffffffffffffffff16145b8015612ab257508373ffffffffffffffffffffffffffffffffffffffff168173ffffffffffffffffffffffffffffffffffffffff16145b15612ac557429650505050505050612ad0565b600096505050505050505b9695505050505050565b6001818051602081018201805184825260208301602085012081835280955050505050506000915090508054600181600116156101000203166002900480601f016020809104026020016040519081016040528092919081815260200182805460018160011615610100020316600290048015612b985780601f10612b6d57610100808354040283529160200191612b98565b820191906000526020600020905b815481529060010190602001808311612b7b57829003601f168201915b505050505081565b6060806002836040518082805190602001908083835b60208310612bd95780518252602082019150602081019050602083039250612bb6565b6001836020036101000a03801982511681845116808217855250505050505090500191505090815260200160405180910390208054600181600116156101000203166002900480601f016020809104026020016040519081016040528092919081815260200182805460018160011615610100020316600290048015612ca05780601f10612c7557610100808354040283529160200191612ca0565b820191906000526020600020905b815481529060010190602001808311612c8357829003601f168201915b5050505050905080915050919050565b6000818051602081018201805184825260208301602085012081835280955050505050506000915090508054600181600116156101000203166002900480601f016020809104026020016040519081016040528092919081815260200182805460018160011615610100020316600290048015612d6e5780601f10612d4357610100808354040283529160200191612d6e565b820191906000526020600020905b815481529060010190602001808311612d5157829003601f168201915b505050505081565b6003818051602081018201805184825260208301602085012081835280955050505050506000915090508054600181600116156101000203166002900480601f016020809104026020016040519081016040528092919081815260200182805460018160011615610100020316600290048015612e345780601f10612e0957610100808354040283529160200191612e34565b820191906000526020600020905b815481529060010190602001808311612e1757829003601f168201915b505050505081565b828054600181600116156101000203166002900490600052602060002090601f016020900481019282601f10612e7d57805160ff1916838001178555612eab565b82800160010185558215612eab579182015b82811115612eaa578251825591602001919060010190612e8f565b5b509050612eb89190612f3c565b5090565b828054600181600116156101000203166002900490600052602060002090601f016020900481019282601f10612efd57805160ff1916838001178555612f2b565b82800160010185558215612f2b579182015b82811115612f2a578251825591602001919060010190612f0f565b5b509050612f389190612f3c565b5090565b612f5e91905b80821115612f5a576000816000905550600101612f42565b5090565b9056fea265627a7a723158204ac69e8c0e633baae5b669fe957848891f64b5196e05b812d4b068a4df982a1164736f6c63430005100032",
  "source": "pragma solidity ^0.5.2;\r\ncontract Inbox{\r\n       constructor() public{}\r\n\r\n    function recover(bytes32 hash, bytes memory signature) public pure returns (address) {\r\n        // Check the signature length\r\n        if (signature.length != 65) {\r\n            return (address(0));\r\n        }\r\n        // Divide the signature in r, s and v variables\r\n        bytes32 r;\r\n        bytes32 s;\r\n        uint8 v;\r\n        // ecrecover takes the signature parameters, and the only way to get them\r\n        // currently is to use assembly.\r\n        // solhint-disable-next-line no-inline-assembly\r\n        assembly {\r\n            r := mload(add(signature, 0x20))\r\n            s := mload(add(signature, 0x40))\r\n            v := byte(0, mload(add(signature, 0x60)))\r\n        }\r\n          if (uint256(s) > 0x7FFFFFFFFFFFFFFFFFFFFFFFFFFFFFFF5D576E7357A4501DDFE92F46681B20A0) {\r\n            return address(0);\r\n        }\r\n        if (v != 27 && v != 28) {\r\n            return address(0);\r\n        }\r\n        // If the signature is valid (and not malleable), return the signer address\r\n        return ecrecover(hash, v, r, s);\r\n    }\r\n    function toEthSignedMessageHash(bytes32 hash) internal pure returns (bytes32) {\r\n        return keccak256(abi.encodePacked(\"\\x19Ethereum Signed Message:\\n32\", hash));\r\n    }\r\n    // }\r\n    //Structure\r\n    mapping (string=>string) public ipfsInbox;\r\n    mapping (string=>bytes) public duData;\r\n    mapping (string=>bytes) public doData;\r\n    mapping (string=>bytes) public spData;\r\n    //Events\r\n    event ipfsSent(string _ipfsHash, string _address);\r\n    event duSent(string _du, bytes _duPk);\r\n    event doSent(string _do, bytes _doPk);\r\n    event spSent(string _sp, bytes _spPk);\r\n    event inboxResponse(string response);\r\n \r\n    //Modifiers\r\n    modifier notFull (string memory _string) {\r\n    bytes memory stringTest = bytes(_string); \r\n    require(stringTest.length==0); \r\n    _;\r\n    }\r\n\r\n    modifier notFull2(bytes memory _string) {\r\n    bytes memory stringTest = bytes(_string); \r\n    require(stringTest.length==0); \r\n    _;\r\n    }\r\n    // An empty constructor that creates an instance of the conteact\r\n    function concatenate(string memory a,string memory b) public pure returns (string memory){\r\n        return string(abi.encodePacked(a,'.',b));\r\n    } \r\nfunction getAddressFromPublicKey(bytes memory _publicKey) public pure returns (address) {\r\n    // Get address from public key\r\n    bytes32 keyHash = keccak256(_publicKey);\r\n    uint result = 0;\r\n    for (uint i = keyHash.length-1; i+1 > 12; i--) {\r\n      uint c = uint(uint8(keyHash[i]));\r\n      uint to_inc = c * ( 16 ** ((keyHash.length - i-1) * 2));\r\n      result += to_inc;\r\n    }\r\n    return address(result);\r\n}\r\n    //takes in receiver's address and IPFS hash. Places the IPFSadress in the receiver's inbox\r\nfunction sendIPFS(string memory _address, string memory _ipfsHash) notFull(ipfsInbox[_address]) public{\r\n        ipfsInbox[_address] = _ipfsHash;\r\n        emit ipfsSent(_ipfsHash, _address);\r\n    }\r\n    //retrieves hash\r\nfunction getHash(string memory _address) public view returns(string memory) {\r\n        string memory ipfs_hash=ipfsInbox[_address];\r\n         //emit inboxResponse(ipfs_hash);\r\n        return ipfs_hash;\r\n    }\r\nfunction store_du( string memory _du, bytes memory _duPk) notFull2(duData[_du]) public {\r\n        duData[concatenate(_du,'publicKey')] = _duPk ;\r\n        emit duSent(_du, _duPk);\r\n            }   \r\nfunction get_du(string memory _du) public view returns ( bytes memory) {\r\n    bytes memory duPk=duData[_du];\r\n         //emit inboxResponse(ipfs_hash);\r\n        return duPk;\r\n         }\r\nfunction store_do( string memory _do  , bytes memory _doPk) notFull2(doData[_do]) public {\r\n    doData[concatenate(_do,'publicKey')] = _doPk ;\r\n    emit doSent(_do, _doPk);\r\n            }\r\nfunction get_do(string memory _do) public view returns ( bytes memory) {\r\n    bytes memory doPk=doData[_do];\r\n         //emit inboxResponse(ipfs_hash);\r\n        return doPk;\r\n         }\r\nfunction store_sp( string memory _sp  , bytes memory _spPk) notFull2(spData[_sp]) public {\r\n        spData[concatenate(_sp,'publicKey')] = _spPk;\r\n        emit spSent(_sp, _spPk);\r\n            }\r\nfunction get_sp(string memory _sp) public view returns ( bytes memory) {\r\n    bytes memory spPk=spData[_sp];\r\n        return spPk;\r\n         }\r\n\r\n    event signer(address , address , address );   \r\n    event publickey(bytes , bytes , bytes );\r\n    event sign2(address, address, address);\r\n\r\nfunction request_data(bytes32 _hasheddu,bytes32 _hasheddo,bytes32 _hashedsp, bytes memory signatureDu , bytes memory signatureDo , bytes memory signatureSp ) public view returns (uint256){\r\n    address du_Signer = recover(_hasheddu, signatureDu);\r\n    address do_Signer = recover(_hasheddo, signatureDo);\r\n    address sp_Signer = recover(_hashedsp, signatureSp);\r\n    // emit publickey(get_du(\"user.publicKey\") , get_do(\"user.publicKey\") , get_sp(\"user.publicKey\") );\r\n    // emit signer(du_Signer , do_Signer , sp_Signer );\r\n    address du_publicKey = getAddressFromPublicKey(get_du(\"user.publicKey\"));\r\n    address do_publicKey = getAddressFromPublicKey(get_do(\"user.publicKey\"));\r\n    address sp_publicKey = getAddressFromPublicKey(get_sp(\"user.publicKey\"));\r\n    // emit sign2(du_publicKey, do_publicKey, sp_publicKey);\r\n    if(du_publicKey == du_Signer && do_publicKey == do_Signer && sp_publicKey == sp_Signer )\r\n        {return now;}\r\n        else{return 0;}\r\n    }\r\n\r\n  function tokenVerify(uint256 time) public view returns(string memory){\r\n      if(now - time <= 60){\r\n          return \"ok\";\r\n      }\r\n      else{\r\n          return \"fail\";\r\n      }\r\n  }\r\n  int private count = 0;\r\nfunction incrementCounter() public {\r\n    count += 1;\r\n}\r\n\r\n  function gettime() public view returns(uint256){\r\n     return now;\r\n  }               \r\n}",
  "sourcePath": "D:\\notes\\project\\gdpr re\\service_provider\\contracts\\Inbox.sol",
  "compiler": {
    "name": "solc",
    "version": "0.5.16+commit.9c3226ce.Emscripten.clang"
  },
  "schemaVersion": "3.4.10",
  "updatedAt": "2022-12-28T17:39:40.900Z",
  "networkType": "ethereum",
  "devdoc": {
    "methods": {}
  },
  "userdoc": {
    "methods": {}
  }
}